:020000040040BA
:10000000886B4120B9FA400069FB400069FB400061
:1000100069FB400069FB400069FB400000000000F4
:10002000000000000000000000000000113D400042
:1000300069FB400000000000C13F40002940400033
:1000400069FB400069FB40008932400069FB4000C9
:1000500069FB400069FB400069FB400069FB400010
:1000600069FB40000000000069FB400069FB4000A4
:1000700069FB4000A92F400069FB4000912F400020
:1000800069FB400069FB400069FB400069FB4000E0
:1000900069FB400069FB400069FB400069FB4000D0
:1000A00069FB400069FB400069FB400069FB4000C0
:1000B00069FB400069FB400069FB400069FB4000B0
:1000C00069FB400069FB400069FB40007934400057
:1000D00091344000A1344000B934400069FB400035
:1000E00069FB400069FB400069FB400069FB400080
:1000F00069FB400069FB400069FB400069FB400070
:1001000069FB400069FB400069FB400069FB40005F
:1001100069FB400069FB4000000000000000000097
:1001200069FB400069FB400069FB400069FB40003F
:1001300069FB400069FB400069FB400069FB40002F
:1001400069FB400069FB400069FB400069FB40001F
:1001500069FB400069FB400069FB400069FB40000F
:1001600069FB400069FB400010B5054C237833B9AA
:10017000044B13B10448AFF300800123237010BD7A
:100180002818402000000000EC4641000C4B43B111
:100190000C480D4910B5AFF300800C48036823B933
:1001A00010BD0A48036833B97047094B002BF7D0DC
:1001B000BDE810401847064B002BF5D0184700BF8C
:1001C00000000000EC4641002C184020EC464100A5
:1001D0000000000080B483B000AF0346FB7197F9C4
:1001E0000730002B0BDB094997F907305B09FA79D7
:1001F00002F01F02012000FA02F241F8232000BFA2
:100200000C37BD465DF8047B704700BF00E100E09D
:1002100080B483B000AF0346FB7197F90730002B21
:100220000CDB094997F907305B09FA7902F01F02E4
:10023000012000FA02F2603341F8232000BF0C379E
:10024000BD465DF8047B704700E100E080B483B0F8
:1002500000AF03463960FB7197F90730002B0ADBCA
:100260000D4997F907303A68D2B25201D2B20B4425
:1002700083F800230AE00949FB7903F00F03043BEC
:100280003A68D2B25201D2B20B441A7600BF0C3790
:10029000BD465DF8047B704700E100E000ED00E042
:1002A00080B483B000AF78607B6800221A707B68EE
:1002B00000225A707B6801229A707B680122DA70F2
:1002C0007B6801221A717B6801225A717B680022C7
:1002D0009A717B680022DA717B6800221A727B684F
:1002E0004FF6FF725A817B6800221A737B680022E6
:1002F0005A737B6800229A737B680022DA737B68EA
:1003000000221A747B6802225A747B6802229A7453
:100310007B680122DA747B6801221A757B686FF0B2
:1003200060429A617B6801221A777B6800225A77C3
:100330007B6801229A777B680022DA777B6800224B
:1003400083F820207B68002283F8212000BF0C372F
:10035000BD465DF8047B704780B483B000AF786021
:1003600039603B681F2B0ED87B681B68D3F8983028
:1003700001213A6801FA02F21340002B01D0012357
:1003800012E0002310E03B68203B3B607B681B6869
:10039000D3F89C3001213A6801FA02F21340002B95
:1003A00001D0012300E0002318460C37BD465DF85C
:1003B000047B704780B483B000AF786039603B68DD
:1003C0001F2B08D87B681B6801213A6801FA02F2EA
:1003D000C3F898200AE03B68203B3B607B681B68C1
:1003E00001213A6801FA02F2C3F89C2000BF0C37E1
:1003F000BD465DF8047B704780B485B000AFF860FF
:100400000B467A60FB72FB7A83F00103DBB2002BB0
:1004100007D0FB681B687A6802F03F02C3F8A82087
:1004200006E0FB681B687A6802F03F02C3F8B82058
:1004300000BF1437BD465DF8047B704780B483B0BD
:1004400000AF78607B684FF080421A607B686FF085
:10045000C0425A6000BF0C37BD465DF8047B704750
:1004600080B483B000AF786039607B681B689B699B
:1004700003F00203002B02D06FF0090305E07B6854
:100480001B683A68C3F8D020002318460C37BD46D5
:100490005DF8047B704780B483B000AF78607B6800
:1004A00000221A607B684FF408025A6000BF0C37C4
:1004B000BD465DF8047B704780B483B000AF7860C0
:1004C00039607B681B687A681268516D3A680A4324
:1004D0005A6500BF0C37BD465DF8047B704780B499
:1004E00083B000AF78607B681B681B6D18460C37C3
:1004F000BD465DF8047B704780B483B000AF786080
:1005000039607B681B683A681A6500BF0C37BD46C6
:100510005DF8047B7047000090B58FB002AF786043
:1005200039600520324B984703210520314B98470D
:1005300050210520304B98470520304B984707F154
:100540000C0318462E4B984700237B740223BB777D
:100550007B6807F10C02396818462A4B98477B687C
:100560005B6819463868284B98477B681846274BC4
:1005700098473B68264A934212D12320254B98473F
:1005800001212320244B98472320244B9847042102
:100590002320214B98477B6821491846214B9847D7
:1005A0003B68214A934212D125201A4B98470121DA
:1005B0002520194B98472520184B984704212520C2
:1005C000154B98477B6816491846164B98470023E9
:1005D00000930023012200214FF48060134CA047B8
:1005E00002467B681A6100BF3437BD4690BD00BF2C
:1005F000C9F94000C9F8400069F84000A1F940007D
:10060000A1024000A1E6400001E740006DE7400084
:1006100000000340110240004D024000D50140009F
:1006200011000862B9044000004003408D4E4000B4
:1006300080B588B000AFF860B9607A60FB68FB6194
:10064000FB69BA689A60FB697A68DA6007F114039B
:1006500018460C4B9847BB6823F0604343F00053A7
:100660007B617B6823F0604343F00043BB61FB691F
:1006700007F1140100221846034B984700BF2037AA
:10068000BD4680BD3D044000D5E7400080B584B044
:1006900000AF78600B46FB707B68FB60FB68184618
:1006A0001E4B9847FB681B68FA681268926942F013
:1006B00002029A6100BFFB681B689B6903F002039A
:1006C000002BF8D0FB78002B08D0FB681B68FA6879
:1006D0001268926922F040029A6107E0FB681B6889
:1006E000FA681268926942F040029A61FB681B68DE
:1006F000FA681268926922F002029A6100BFFB68F0
:100700001B689B6903F00203002BF8D1FB681846B5
:10071000034B984700BF1037BD4680BDA1E740009E
:100720006DE7400080B584B000AF786039603B6809
:10073000234A934209D03B68224A934205D03B6842
:10074000214A934201D0002335E07B68FB60FB68BF
:100750003A685A60FB6818461C4B9847FB681B6850
:10076000FA681268926942F002029A6100BFFB685F
:100770001B689B6903F00203002BF8D0FB681A6822
:10078000FB685B6819461046114B9847FB681B686D
:10079000FA681268926922F002029A6100BFFB684F
:1007A0001B689B6903F00203002BF8D1FB68184615
:1007B000084B9847012318461037BD4680BD00BF3F
:1007C00080841E0040420F0020A10700A1E74000E6
:1007D00001E740006DE7400080B58AB000AFF860E7
:1007E000B9607A603B603B68082B43D8FB687B624A
:1007F00007F110031846214B9847BB6823F060436C
:1008000043F080433B613B68DBB203F00F03DAB295
:100810007B6962F313437B6107F1100308333A6885
:1008200079681846164B984700BF7B6A1B68D3F857
:10083000C43003F40013012BF7D87B6A1B68D3F88C
:10084000C4301B0C03F01F033B627B6A07F11001ED
:100850003A6A18460B4B984700BF786A01223B6AF8
:1008600002FA03F31946084B9847034613F10A0F9F
:10087000F3D000E000BF2837BD4680BD970440009C
:10088000A914410095E940006104400090B58BB087
:1008900000AFF860B9607A603B60FB687B627B6A9E
:1008A000186907F11401C8231022104CA047034611
:1008B000002B15D07A69BB681A60BB69C3F3034388
:1008C000DBB21A463B681A607B6818683B681A6896
:1008D00007F1140308331946054B9847012300E03C
:1008E000002318462C37BD4690BD00BF89534000F9
:1008F000A914410090B591B000AF786000237B63EC
:100900007B681846514B984703463B633B6B03F4A7
:100910000023002B23D07B684FF4002118464C4B5A
:1009200098470023FB6217E07B68FA6A1146184675
:10093000484B98470346002B0BD07B68FA6A114658
:100940001846454B98477B68FA6A44491846444B19
:100950009847FB6A0133FB62FB6A0F2BE4D93B6BC0
:1009600003F00103002B22D07B681B68D3F8A4306E
:100970001B0A03F03F03FB637B6807F11C01FA6B62
:100980001846384B98477B68186907F1340307F11C
:100990001C011022344CA0477B68FA6B00211846DA
:1009A000324B98477B6801211846294B98473B6B8F
:1009B00003F01003002B19D07B681B68D3F8B43008
:1009C0001B0A03F03F03BB637B6807F10C01BA6BA2
:1009D0001846274B98477B68BA6B01211846234B72
:1009E00098477B6810211846194B98473B6B03F0DA
:1009F0000073002B05D07B684FF000711846144B34
:100A000098473B6B03F00053002B05D07B684FF0F9
:100A1000005118460E4B98473B6B03F08043002B68
:100A200005D07B684FF080411846094B98477B6B97
:100A3000002B07D00F4B4FF080521A60BFF34F8F3F
:100A4000BFF36F8F00BF4437BD4690BDDF04400049
:100A5000F904400059034000B50340004418402009
:100A600051E84000BDE84000F1514000F90340006A
:100A700029E9400004ED00E080B483B000AF786065
:100A80007B68072B25D801A252F823F0AD0A40005D
:100A9000B30A4000B90A4000BF0A4000C30A400040
:100AA000C70A4000CB0A4000CF0A40004FF4FA4387
:100AB00010E04FF400430DE04FF400430AE0084B10
:100AC00008E0084B06E0084B04E0074B02E0064B49
:100AD00000E0002318460C37BD465DF8047B7047E4
:100AE00000093D0000127A00001BB70080B500AF7E
:100AF0000620054B9847024613469B0013449A0074
:100B00001344184680BD00BF790A400080B500AF8D
:100B1000044B98470246044BA3FB02235B0818468C
:100B200080BD00BFED0A4000ABAAAAAA80B582B082
:100B300000AF78607868034B984700BF0837BD4620
:100B400080BD00BF2DF8400080B586B000AF786052
:100B500039607B683A681A6001201D4B984702464D
:100B60007B685A607B681B684FF0FF311846194B51
:100B700098477B681B68184A934202D11320174B91
:100B800098477B681B68164A934202D11420134B86
:100B900098477B681B68134A934202D129200F4B68
:100BA000984726233B7500237B750F4B98470346D8
:100BB000FB600E4B3B617B681B6807F10C02114622
:100BC00018460B4B984700BF1837BD4680BD00BF85
:100BD0005D44400041EE4000008001402D0B40008C
:100BE00000C00140000006400D0B4000801A0600C6
:100BF0009DEA400090B585B000AF786039607B68B1
:100C0000FB60FB681C68064B984703461A46396828
:100C10002046044B984700BF1437BD4690BD00BF27
:100C20000D0B4000F5EA400090B58DB000AFF860C4
:100C30007A603B600B46FB72FB68BB62FB7A87F80D
:100C400024307B681B783B750123BB617B680133D3
:100C5000FB613B68013B3B620923FB62BB6A5B684B
:100C60004FF4FA711846124B98470346012B14D1E2
:100C7000BB6A1B6807F11402114618460D4B9847D2
:100C8000F862BB6A1B6818460B4B9847BB6A5868EA
:100C9000002300220021094CA047FB6A002B0CBF57
:100CA00001230023DBB218463437BD4690BD00BF98
:100CB000BD4840006DED400061EE400095444000AD
:100CC00090B58DB000AFF8607A603B600B46FB7268
:100CD000FB68BB62FB7A87F824303B68032B28BF94
:100CE00003231A4607F1140379681846164B9847F0
:100CF0003B68BB613B6CFB617B6C3B620023FB622E
:100D0000BB6A5B684FF4FA711846104B984703466C
:100D1000012B0FD1BB6A1B6807F11402114618465C
:100D20000B4B9847F862BB6A5868002300220021E9
:100D3000084CA047FB6A002B0CBF01230023DBB249
:100D400018463437BD4690BDA9144100BD48400047
:100D500065EC40009544400080B483B000AF7860FB
:100D60007B68072B25D801A252F823F08D0D400097
:100D7000930D4000990D40009F0D4000A30D4000D1
:100D8000A70D4000AB0D4000AF0D40004FF4FA43FB
:100D900010E04FF400430DE04FF400430AE0084B2D
:100DA00008E0084B06E0084B04E0074B02E0064B66
:100DB00000E0002318460C37BD465DF8047B704701
:100DC00000093D0000127A00001BB70080B500AF9B
:100DD0000620054B9847024613469B0013449A0091
:100DE0001344184680BD00BF590D400080B500AFC8
:100DF000024B98470346184680BD00BFCD0D40000A
:100E000080B483B000AF786039607B683A681A605C
:100E10007B681B6801221A607B681B684FF4805254
:100E2000C3F860227B681B684FF48072C3F86C22A1
:100E30007B681B680022C3F868227B681B687A689D
:100E40001268126942F008021A6100BF0C37BD46F1
:100E50005DF8047B704700002DE9F04383B000AFDC
:100E600078600B46FB70FB78002B3AD07B685B68A0
:100E7000002B05D07B685B687A68D268104698477B
:100E8000214B9847034619464FF000020B46144683
:100E90004FEA840949EA93794FEA830843464C466E
:100EA0005B1844EB0204A60046EA93769D002B46AD
:100EB000344619462246154B4FF00004CD1842EB3C
:100EC000040628463146124C124A4FF00003A04750
:100ED00003460C461846104B9847104B984772B67D
:100EE0000CE062B60E4B98477B689B68002B05D0E0
:100EF0007B689B687A68D2681046984700BF0C37B9
:100F0000BD46BDE8F08300BFED0D4000DF835A0011
:100F1000D9104100E0835A0001004020093F400001
:100F20006D3F400080B485B000AF78600846114640
:100F30001A460346FB700B46BB7013467B707B68FA
:100F40001B6808225A607B681B68FA78C3F868221D
:100F500000BF1437BD465DF8047B704780B483B092
:100F600000AF0346FB7197F90730002B0BDB0949F3
:100F700097F907305B09FA7902F01F02012000FAA5
:100F800002F241F8232000BF0C37BD465DF8047B18
:100F9000704700BF00E100E080B483B000AF0346BB
:100FA0003960FB7197F90730002B0ADB0D4997F97F
:100FB00007303A68D2B25201D2B20B4483F8002310
:100FC0000AE00949FB7903F00F03043B3A68D2B207
:100FD0005201D2B20B441A7600BF0C37BD465DF801
:100FE000047B704700E100E000ED00E080B483B0D6
:100FF00000AF78607B68072B25D801A252F823F058
:1010000021104000271040002D10400033104000F8
:10101000371040003B1040003F104000431040009C
:101020004FF4FA4310E04FF400430DE04FF4004357
:101030000AE0084B08E0084B06E0084B04E0074BC9
:1010400002E0064B00E0002318460C37BD465DF871
:10105000047B704700093D0000127A00001BB700B6
:1010600080B500AF0620054B9847024613469B000B
:1010700013449A001344184680BD00BFED0F400092
:1010800080B500AF044B98470246044BA3FB0223F4
:101090005B08184680BD00BF61104000ABAAAAAA39
:1010A00080B582B000AF78607868034B984700BF86
:1010B0000837BD4680BD00BF2DF8400080B48BB01E
:1010C00000AF78600B46FB707B687B62FB7887F82B
:1010D00023307B6AFB61FB69BB61BB695B097B6198
:1010E0007A69104B13445B023B6197F82330002B65
:1010F00009D07B6AFB60FB6803F01F0301229A4062
:101100003B691A6308E07B6ABB60BB6803F01F039E
:1011100001229A403B695A6300BF2C37BD465DF8F7
:10112000047B70470707200090B58DB002AFF860D0
:10113000B9607A60FB6893F85C30002B09D0FB68DB
:101140001B6E002B05D1514B514A16215148524C70
:10115000A047002300930023002201214FF40070D8
:101160004E4CA0470246FB681A6000230093002300
:10117000002201214FF40070484CA0470246FB6852
:101180005A60FB68BA689A65FB6800221A65FB68BA
:1011900000225A65FB6800229A62FB680022DA622C
:1011A000FB689B6D4FF0FF3118463D4B9847FB683D
:1011B0009B6D3C4A934202D10D203B4B9847FB6804
:1011C0009B6D3A4A934202D10E20374B9847FB68F9
:1011D0009B6D374A934202D10F20334B98477B686F
:1011E0003B61C0237B614FF40063BB610023FB6163
:1011F00000233B62FB689C6D2E4B9847024607F12B
:101200001003194620462C4B9847FB689B6D1846E7
:101210002A4B9847FB689B6D1846294B9847FB68FB
:101220009B6D40F201211846264B9847FB689B6D49
:101230001C4A934206D101210D20234B98470D20D3
:10124000224B9847FB689B6D184A934206D10121B7
:101250000E201D4B98470E201C4B9847FB689B6D3A
:10126000134A934206D101210F20174B98470F20B4
:10127000164B9847FB6893F85C30002B02D0F86857
:10128000134B984700BF2C37BD4690BDB83F410077
:10129000EC3F4100C83F4100E91341008D4E400042
:1012A0009DF0400000400240A1104000008002403C
:1012B00000C002408110400095EF400019F040004E
:1012C0004DF0400081F04000990F40005D0F40005C
:1012D0001D13400080B582B000AF78607B689B6DC5
:1012E0004FF400711846034B984700BF0837BD46BE
:1012F00080BD00BF81F0400080B584B000AF786051
:101300007B68FB60FB681B6E01211846024B984707
:1013100000BF1037BD4680BDBD10400080B584B011
:1013200000AF78607B68FB60FB681A6DFB685B6DE3
:10133000D31A1F3303F01F03052B05D9FB681B6E5F
:1013400000211846024B984700BF1037BD4680BDAC
:10135000BD10400090B587B000AF78607B687B61BE
:101360007B691A6D7B695B6D9A423DD07B695B6DD1
:10137000BB607B691A6DBB689A4216D97B69186895
:101380007B691B6D30337A69D1187B691B6DC3F1A2
:1013900020020023164CA04738617B691A6D3B6917
:1013A000134403F01F027B691A657B691A6DBB68E1
:1013B0009A4216D27B6918687B691B6D30337A6953
:1013C000D118BA687B691B6DD21A0023084CA0475C
:1013D000F8607B691A6DFB68134403F01F027B6998
:1013E0001A657869034B98470120034B9847B7E784
:1013F000115040001D134000B15D400090B587B012
:1014000000AF78607B683B613B699A6A3B69DB6A45
:10141000D31A1F3303F01F037B613B699A6A3B6950
:10142000DB6A9A420DD83B69DB6AC3F120027B6913
:101430009A4204D83B69DB6AC3F1200300E07B6970
:101440007B613B6958683B69DB6A08333A69D118AC
:101450004FF0FF337A690B4CA047F8603B69DA6ABA
:10146000FB68134403F01F023B69DA62FB68002B40
:10147000CAD03B699B6D4FF400711846024B9847E8
:10148000C2E700BF8953400081F0400080B586B0BC
:1014900000AF78607B689B6D18462D4B984778614C
:1014A0007B6903F00103002B2AD01EE07B685B6D93
:1014B000FA68D1B27A6813440A4683F830207B6810
:1014C0005B6D013303F01F027B685A657B681A6D00
:1014D0007B685B6DD31A1F3303F01F033B613B69CD
:1014E000092B02D878681B4B98477B689B6D07F1E6
:1014F0000C0211461846184B98470346002BD5D0CE
:101500007B6903F40073002B1ED07B689A6A7B68AA
:10151000DB6A9A4211D07B68986D7B689B6A7A6817
:1015200013441B7A19460D4B98477B689B6A01331D
:1015300003F01F027B689A6206E07B689B6D4FF4A4
:1015400000711846064B984700BF1837BD4680BD4E
:10155000B9F04000F91240003BF1400009F14000B1
:101560009DF0400090B587B000AFF860B9607A6038
:10157000FB687B617B69586800237A68B968064C10
:10158000A04738613B69002B02D07869034B98472C
:1015900000BF1C37BD4690BD11504000D512400021
:1015A00090B587B000AFF860B9607A60FB687B6186
:1015B0007B6918684FF4FA737A68B968034CA047DE
:1015C00038613B6918461C37BD4690BD89534000C1
:1015D00080B584B000AFF860B9607A60FB68012B19
:1015E0000AD0FB68022B07D0064B98470246092316
:1015F00013604FF0FF3300E07B6818461037BD469C
:1016000080BD00BF2514410080B485B000AFF860F4
:10161000B9607A60002318461437BD465DF8047B34
:101620007047000080B58EB000AF78600023FB6289
:101630007B68002B22D00823DA437B689A421BD3B5
:1016400008227B6813447B607B6803F00703002B50
:1016500014D07B6803F00703C3F10803BB62BB6AC5
:10166000DA437B689A4204D37A68BB6A13447B608E
:1016700004E000237B6001E000237B607D4B984702
:101680007D4B1B68002B01D17C4B98477B68002B5E
:10169000C0F2D3807B68002B00F0CF80784B1B68B2
:1016A0007A689A4200F2C980764B3B63754B1B689F
:1016B0007B637B6B744A934205D37B6B734A934283
:1016C00001D8012300E00023002B29D14FF0600353
:1016D00072B683F31188BFF36F8FBFF34F8F62B67B
:1016E0003B62FEE77B6B3B637B6B1B687B637B6BC7
:1016F000654A934205D37B6B644A934201D8012328
:1017000000E00023002B0BD14FF0600372B683F38F
:101710001188BFF36F8FBFF34F8F62B6FB61FEE797
:101720007B6B5A687B689A4203D27B6B1B68002BE9
:10173000D8D1514B1B687A6B9A427ED03B6B1B68A9
:1017400008221344FB62FB6A4F4A934205D3FB6AAB
:101750004E4A934201D8012300E00023002B0BD115
:101760004FF0600372B683F31188BFF36F8FBFF33E
:101770004F8F62B6BB61FEE77B6B1A683B6B1A60EA
:101780007B6B5A687B689A420BD24FF0600372B64B
:1017900083F31188BFF36F8FBFF34F8F62B67B6106
:1017A000FEE77B6B5A687B68D21A08235B009A427B
:1017B00024D97A6B7B6813447B627B6A03F007034E
:1017C000002B0BD04FF0600372B683F31188BFF388
:1017D0006F8FBFF34F8F62B63B61FEE77B6B5A683A
:1017E0007B68D21A7B6A5A607B6B7A685A603B6B63
:1017F0001A687B6A1A603B6B7A6A1A60204B1A6817
:101800007B6B5B68D31A1E4A13601D4B1A68204B12
:101810001B689A4203D21A4B1B681D4A13607B6BEC
:101820005B6843F000427B6B5A607B6B00221A605E
:10183000184B1B680133174A1360174B9847FB6A14
:10184000002B01D1154B9847FB6A03F00703002BCF
:101850000BD04FF0600372B683F31188BFF36F8F24
:10186000BFF34F8F62B6FB60FEE7FB6A184638375E
:10187000BD4680BD995F40005C184120BD19400005
:10188000601841205418412054184020531841201A
:101890006418412068184120B55F40006F02410084
:1018A00080B588B000AF78607B68FB617B68002BF7
:1018B00070D008235B42FA691344FB61FB69BB618A
:1018C000BB69364A934205D3BB69354A934201D876
:1018D000012300E00023002B0BD14FF0600372B610
:1018E00083F31188BFF36F8FBFF34F8F62B67B61B5
:1018F000FEE7BB695B68002B0BDB4FF0600372B641
:1019000083F31188BFF36F8FBFF34F8F62B63B61D4
:10191000FEE7BB691B68002B0BD04FF0600372B66B
:1019200083F31188BFF36F8FBFF34F8F62B6FB60F5
:10193000FEE7BB695B68002B2CDABB691B68002BD8
:1019400028D1BB695B6823F00042BB695A60BB6960
:101950005B68082293420AD30822FB699818BB6986
:101960005B6808229B1A1A4600210E4B98470E4BC3
:101970009847BB695A680D4B1B6813440B4A1360A8
:10198000B8690B4B98470B4B1B680133094A13602E
:10199000094B984700BF2037BD4680BD54184020F2
:1019A00053184120DD154100995F40006018412027
:1019B000711A40006C184120B55F400080B485B0BA
:1019C00000AF4FF48033BB60244BFB60FB6803F037
:1019D0000703002B0CD0FB680733FB60FB6823F088
:1019E0000703FB60BA68FB68D31A1C4A1344BB6048
:1019F000FB681B4A13601A4B00225A60FA68BB68E6
:101A000013447B6008227B689B1A7B607B6823F011
:101A100007037B607B68134A1360124B1B6800222C
:101A20005A60104B1B6800221A60FB683B603B68E1
:101A30007A68D21A3B685A600A4B1A683B681A6087
:101A40003B685B68084A13603B685B68074A136041
:101A500000BF1437BD465DF8047B70475418402022
:101A6000541841205C18412064184120601841201E
:101A700080B487B000AF7860364B7B6102E07B6951
:101A80001B687B617B691A687B689A42F7D37B6924
:101A9000304A934218D07B692F4A934205D37B6921
:101AA0002E4A934201D8012300E00023002B0BD1E2
:101AB0004FF0600372B683F31188BFF36F8FBFF3EB
:101AC0004F8F62B6FB60FEE77B693B617B695B68B9
:101AD0003A691A447B689A4208D17B695A687B68E4
:101AE0005B681A447B695A607B697B607B683B61F9
:101AF0007B685B683A691A447B691B689A4218D113
:101B00007B691A68164B1B689A420DD07B685A682D
:101B10007B691B685B681A447B685A607B691B6839
:101B20001A687B681A6008E00D4B1A687B681A60B7
:101B300003E07B691A687B681A607A697B689A425D
:101B400002D07B697A681A6000BF1C37BD465DF819
:101B5000047B7047541841205418402053184120EA
:101B60005C18412090B585B000AF78607B68002B91
:101B700005D1304B304A0F213048314CA0477B68AB
:101B80001B68002B05D12F4B2B4A10212B482C4CC6
:101B9000A0477B685B68002B05D12B4B264A11219F
:101BA0002648274CA0477B68242283F820207B68A6
:101BB000252283F838207B68262283F850207B6812
:101BC000272283F868200023FB602CE07968FA68FC
:101BD00013465B001344DB000B440C3301221A70E4
:101BE0007968FA6813465B001344DB000B440D333D
:101BF00000221A707968FB685A1C13465B00134474
:101C0000DB000B44043300221A807968FB685A1CFD
:101C100013465B001344DB000B44063300221A809A
:101C2000FB680133FB60FB68032BCFDD00BF14377B
:101C3000BD4690BDFC3F410068404100044041006A
:101C4000E91341001C4041003840410090B58DB07F
:101C500002AF78607B68002B05D1864B864A27212E
:101C60008648874CA04700233B7500237B750023E3
:101C7000BB75002387F823307B68FB6100237B6200
:101C8000ECE17A6A13465B001344DB000833FA691F
:101C900013440433BB61BB695B78012B3CD0022B3E
:101CA00000F00481002B40F0D681BB691B78002B2B
:101CB00000F0CE81BB6904331846724B9847034647
:101CC000002B00F0C581BB690433642118466E4BBC
:101CD00098470223FB74FB695C68FB699868BB69E1
:101CE000197D07F113020223019307F114030093F6
:101CF0000123A047034687F8233097F82330002BB1
:101D000000F0A681BB6901225A70BB6900225A8289
:101D1000BB6900221A829BE102233B75BB695B8A87
:101D2000DBB27B75BB695B8A1B0A9BB2DBB2BB75FE
:101D3000FB691C68FB699868BB69197D07F114028F
:101D40000323A04706233B7500237B75F823BB754F
:101D5000FB691C68FB699868BB69197D07F114026F
:101D60000323A04706233B7500237B750023BB7527
:101D7000FB695C68FB699868BB69197D07F114020F
:101D80000223019307F11403013300930123A047B9
:101D9000034687F8233097F82330002B4ED07B7D05
:101DA000002B4BD1BB7DF82B48D100233B75002382
:101DB0007B750023BB75FB695C68FB699868BB6930
:101DC000197D07F114020223019307F11403013373
:101DD00000930123A047034687F82330BB7D1B09EE
:101DE000FB757B6A002B06D10120284B9847FB7DB1
:101DF0001846274B98477B6A012B06D10120254BBB
:101E00009847FB7D1846244B98477B6A022B06D1E6
:101E10000120224B9847FB7D1846214B98477B6A4F
:101E2000032B06D101201F4B9847FB7D18461E4B04
:101E30009847BB6902225A7000BF0CE17B6A002BF5
:101E400002D10020114B98477B6A012B02D1002060
:101E5000104B98477B6A022B02D100200F4B98470A
:101E60007B6A032B02D100200E4B9847BB690022EE
:101E70005A70F0E0544041007C4041000440410071
:101E8000E913410025234000C122400011C4400055
:101E900071C44000D1C5400031C6400091C7400028
:101EA000F1C7400051C94000B1C94000BB691A8A5E
:101EB000BB695B8A9A4273D002233B75BB691B8A5C
:101EC000DBB27B75BB691B8A1B0A9BB2DBB2BB759D
:101ED000FB691C68FB699868BB69197D07F11402EE
:101EE0000323A047BB691A8ABB695A820023FB609F
:101EF0007B6A002B12D10023FB6007F10C0318460C
:101F00005A4B9847FB6803F00F03BA69128A120410
:101F10001343FB60FB681846554B98477B6A012BBF
:101F200012D10023FB6007F10C031846514B984770
:101F3000FB6803F00F03BA69128A12041343FB60B3
:101F4000FB6818464C4B98477B6A022B12D1002342
:101F5000FB6007F10C031846484B9847FB6803F0F9
:101F60000F03BA69128A12041343FB60FB68184618
:101F7000434B98477B6A032B12D10023FB6007F188
:101F80000C0318463F4B9847FB6803F00F03BA69F0
:101F9000128A12041343FB60FB6818463A4B9847B9
:101FA000BB6904331846394B98470346002B51D080
:101FB000BB691B78002B4DD0BB6904334FF47A7199
:101FC0001846334B984702233B7500237B7500234B
:101FD000BB75FB695C68FB699868BB69197D07F193
:101FE00014020223019307F1140301330093012328
:101FF000A047034687F8233097F8233083F0010386
:10200000DBB2002B26D07B6A002B05D10020214BB0
:102010009847BB6900225A707B6A012B05D10020CA
:102020001D4B9847BB6900225A707B6A022B05D171
:1020300000201A4B9847BB6900225A707B6A032B19
:1020400008D10020164B9847BB6900225A7001E066
:1020500000BF00E000BF7B6A01337B627B6A032B19
:102060007FF70FAE14200F4B984707E639C34000A7
:10207000E9C2400021C54000D1C44000E1C6400093
:1020800091C64000A1C8400051C84000252340002F
:10209000C122400011C44000D1C5400091C740009A
:1020A00051C94000B15D400090B583B000AF786089
:1020B0000B46FB707B68002B05D10E4B0E4AE221CC
:1020C0000E480F4CA047FB78032B05D90D4B0A4A4D
:1020D000E3210A480A4CA047FA78796813465B0066
:1020E0001344DB000B440C3301221A7000BF0C3781
:1020F000BD4690BDFC3F410090404100044041007E
:10210000E91341005C40410090B583B000AF7860B6
:102110000B46FB707B68002B05D10E4B0E4AEA2163
:102120000E480F4CA047FB78032B05D90D4B0A4AEC
:10213000EB210A480A4CA047FA78796813465B00FD
:102140001344DB000B440C3300221A7000BF0C3721
:10215000BD4690BDFC3F4100AC4041000440410001
:10216000E91341005C40410090B583B000AF786056
:102170000B46FB7013463B807B68002B05D1154B4B
:10218000154AF2211548164CA047FB78032B05D9B8
:10219000144B114AF3211148114CA047F878FB78F1
:1021A00079685A1C13465B001344DB000B4404336C
:1021B0001A883B8813439CB27968421C13465B0023
:1021C0001344DB000B44043322461A8000BF0C3753
:1021D000BD4690BDFC3F4100C84041000440410065
:1021E000E91341005C40410090B583B000AF7860D6
:1021F0000B46FB7013463B807B68002B05D1184BC8
:10220000184AF9211848194CA047FB78032B05D927
:10221000174B144AFA211448144CA047F878FB785D
:1022200079685A1C13465B001344DB000B440433EB
:102230001B881AB2B7F90030DB431BB213401BB244
:102240009CB27968421C13465B001344DB000B44CC
:10225000043322461A8000BF0C37BD4690BD00BF34
:10226000FC3F4100E040410004404100E9134100CF
:102270005C40410080B483B000AF03463960FB711D
:10228000FB7905493A6841F8232000BF0C37BD4669
:102290005DF8047B704700BF7018412080B483B0A4
:1022A00000AF78600B46FB707B68FA781A707B6829
:1022B00001221A7200BF0C37BD465DF8047B7047DF
:1022C00090B583B000AF78600B467B807B681B784D
:1022D0001A460F4B53F82230002B05D10D4B0E4AF6
:1022E00024210E480E4CA0477B6800221A727B689E
:1022F0001B781A46064B53F82230984702467B88D3
:102300001A447B685A6000BF0C37BD4690BD00BFC1
:1023100070184120F8404100204141001041410027
:10232000E913410090B585B000AF78607B681B7AF7
:10233000012B01D101232EE07B681B781A46184B34
:1023400053F82230002B05D1164B174A4B21174862
:10235000174CA0477B681B781A46114B53F8223064
:102360009847F8607B685A68FB689A4207D87B6890
:102370005B68FA68D31A002B09DA00230BE07B684C
:102380005A68FB68D31A002B01DB002303E07B684B
:1023900001221A72012318461437BD4690BD00BFB2
:1023A00070184120F84041002C414100104141008B
:1023B000E913410090B585B002AF78600023009327
:1023C0000023012200214FF480700A4CA0470246EE
:1023D0007B681A61002300930023012200214FF43F
:1023E0008070044CA04702467B685A6100BF0C37DE
:1023F000BD4690BD8D4E400090B59BB000AF78605B
:102400007B683B663B6E186907F138014FF0FF337C
:102410001022664CA047F865FB6D002B00F0C180D0
:1024200007F1380107F12C03FA6D1846604B984705
:10243000034687F85B3097F85B3083F00103DBB22B
:10244000002B40F0B08097F82C30402BDAD107F108
:102450000803202200211846564B9847C0233B72A0
:102460003B6B1B787B7297F82E30BB723B6E5B7BAD
:10247000FB723B6E1B7B3B733B6B9B787B733B6BB5
:10248000DB78BB7397F82D3083F00103DBB2002BB0
:102490007CD0002387F86730002387F8663053E04C
:1024A0003B6B97F86620043213441B78C02B16D17F
:1024B00097F867305A1C87F8672007F168021344C1
:1024C000DB2203F8402C97F867305A1C87F8672006
:1024D00007F168021344DC2203F8402C2FE03B6B29
:1024E00097F86620043213441B78DB2B16D197F83B
:1024F00067305A1C87F8672007F168021344DB2213
:1025000003F8402C97F867305A1C87F8672007F1CA
:1025100068021344DD2203F8402C10E097F867307E
:102520005A1C87F8672019463B6B97F866200432DF
:1025300013441A7807F168030B4403F8402C97F80A
:102540006630013387F8663097F86630032BA7D9D9
:1025500097F8672007F1280107F1080307331846A9
:10256000154B984797F86730073307F16802134413
:10257000C02203F8602C3B6E1B683A6E906897F897
:102580006720083207F1080198473BE7C023FB7337
:102590003B6E1B683A6E906807F108010822984765
:1025A00030E700BF2EE700BF2CE700BF8953400093
:1025B00025D54000DD154100A914410090B5AFB00C
:1025C00000AF78607B68C7F8A0302023C7F89C3044
:1025D0000023C7F8B430002387F8B330002387F80E
:1025E000B230C8206B4B9847D7F8A0305B68D7F85B
:1025F000A020906807F17401D7F89C209847C7F88D
:102600009800D7F89830002B00F0C2800023C7F85C
:10261000AC30B5E007F17402D7F8AC3013441B7846
:1026200087F8AB3097F8B33083F00103DBB2002BAF
:102630000BD097F8AB30C02B40F09D80012387F87A
:10264000B3300023C7F8B43095E097F8AB30C02B17
:1026500063D1D7F8B430052B03D8002387F8B33003
:1026600089E097F8553087F82A30402387F82830DA
:10267000D7F8B430DBB2023BDBB287F8303007F179
:102680003403FB62FB6A97F854201A70FB6A01332B
:1026900006221A70FB6A023397F858201A70FB6AF8
:1026A000033397F859201A70042387F8AA300623B9
:1026B000C7F8A43012E0FA6A97F8AA30591C87F8D4
:1026C000AA10134407F15401D7F8A4200A44127841
:1026D0001A70D7F8A4300133C7F8A430D7F8A42073
:1026E000D7F8B4309A42E6D307F1280207F108037D
:1026F00011461846284B9847C7F89400D7F8A030E1
:10270000586907F108010023D7F89420234CA0470B
:10271000002387F8B33000BF2DE097F8AB30DB2BF8
:1027200003D1012387F8B23025E097F8B230002BAF
:1027300011D097F8AB30DC2B03D1C02387F8AB3036
:1027400006E097F8AB30DD2B02D1DB2387F8AB3006
:10275000002387F8B230D7F8B4301F2B0BD8D7F846
:10276000B4305A1CC7F8B42007F1B802134497F8E4
:10277000AB2003F8642CD7F8AC300133C7F8AC3089
:10278000D7F8AC20D7F898309A42FFF443AF28E747
:1027900000BF26E7B15D40008DD5400011504000DC
:1027A00080B485B000AF78607B6803F00703FB60FE
:1027B0000B4BDB68BB60BA684FF6FF031340BB608E
:1027C000FB681A02BB681A43064B1343BB60044AFA
:1027D000BB68D36000BF1437BD465DF8047B70470B
:1027E00000ED00E00000FA0580B483B000AF0346BE
:1027F000FB7197F90730002B0BDB094997F907307C
:102800005B09FA7902F01F02012000FA02F241F896
:10281000232000BF0C37BD465DF8047B704700BF26
:1028200000E100E080B483B000AF0346FB7197F98C
:102830000730002B10DB0B4997F907305B09FA7959
:1028400002F01F02012000FA02F2203341F8232097
:10285000BFF34F8FBFF36F8F00BF0C37BD465DF8DE
:10286000047B704700E100E080B483B000AF034612
:102870003960FB7197F90730002B0ADB0D4997F996
:1028800007303A68D2B25201D2B20B4483F8002327
:102890000AE00949FB7903F00F03043B3A68D2B21E
:1028A0005201D2B20B441A7600BF0C37BD465DF818
:1028B000047B704700E100E000ED00E080B582B0ED
:1028C00000AF78607B68013BB3F1807F01D30123C7
:1028D0000FE00A4A7B68013B536007214FF0FF304D
:1028E000074B9847054B00229A60044B07221A6059
:1028F000002318460837BD4680BD00BF10E000E049
:102900006928400080B483B000AF78607B68072BF3
:1029100025D801A252F823F0392940003F29400070
:10292000452940004B2940004F29400053294000D1
:10293000572940005B2940004FF4FA4310E04FF460
:1029400000430DE04FF400430AE0084B08E0084B59
:1029500006E0084B04E0074B02E0064B00E00023D2
:1029600018460C37BD465DF8047B704700093D00F2
:1029700000127A00001BB70080B500AF0620054B9F
:102980009847024613469B0013449A001344184686
:1029900080BD00BF0529400080B500AF024B9847BD
:1029A0000346184680BD00BF7929400080B582B03B
:1029B00000AF78607868034B984700BF0837BD4682
:1029C00080BD00BF2DF8400080B500AF0A20084B45
:1029D00098470B20064B98470C20054B9847102032
:1029E000034B98471120024B984700BF80BD00BFA2
:1029F000AD29400080B489B000AF78607B68FB618E
:102A0000FB69BB61BB695A09FB697B617B6903F0A8
:102A10001F03012101FA03F33A61FB603B69BB60CC
:102A2000BA68064B13445B021A46FB68136000BF8A
:102A30002437BD465DF8047B704700BF07072000C0
:102A400080B489B000AF78607B68FB61FB69BB61D3
:102A5000BB695A09FB697B617B6903F01F03012194
:102A600001FA03F33A61FB603B69BB60BA68064B4D
:102A700013445B021A46FB68536000BF2437BD460F
:102A80005DF8047B704700BF0707200080B48DB05D
:102A900000AF786039607B68FB623B68BB62FB6AB1
:102AA0007B627B6A5A09FB6A3B623B6A03F01F0345
:102AB000012101FA03F3FA61BB61BB6A7B61FB6927
:102AC0003B613A69374B13445B02FB607B6903F05F
:102AD0000803002B03D0FB68BA695A6602E0FB6862
:102AE000BA691A667B6903F01003002B04D0FB68F7
:102AF000BA69C3F8942003E0FB68BA69C3F8902070
:102B00007B6903F02003002B03D0FB68BA691A65C8
:102B100002E0FB68BA695A657B6903F0C003002BC9
:102B200003D0FB68BA691A6202E0FB68BA695A62AC
:102B30007B6903F08003002B04D0FB68BA69C3F8FB
:102B4000842003E0FB68BA69C3F880207B6903F046
:102B50000103002B06D0FB681A6FBB691A43FB68A0
:102B60001A6706E0FB681A6FBB69DB431A40FB6813
:102B70001A677B6903F00203002B06D0FB685A6FCB
:102B8000BB691A43FB685A6706E0FB685A6FBB696A
:102B9000DB431A40FB685A6700BF3437BD465DF817
:102BA000047B70470707200080B48DB000AF7860C9
:102BB0000B46FB707B68FB62FB7887F82B30FB6A67
:102BC0007B627B6A3B623B6A5B09FB61FA69174B7C
:102BD00013445B02BB6197F82B30012B09D1FB6AD0
:102BE0007B617B6903F01F0301229A40BB691A6174
:102BF0000CE097F82B30002B08D1FB6A3B613B6956
:102C000003F01F0301229A40BB695A61FB6AFB6013
:102C1000FB6803F01F0301229A40BB69C3F8A020A0
:102C200000BF3437BD465DF8047B704707072000BE
:102C300080B48BB000AF78600B46FB707B687B6222
:102C4000FB7887F823307B6AFB61FB69BB61BB695A
:102C50005B097B617A69104B13445B023B6197F817
:102C60002330002B09D07B6AFB60FB6803F01F0355
:102C700001229A403B691A6308E07B6ABB60BB682B
:102C800003F01F0301229A403B695A6300BF2C37AF
:102C9000BD465DF8047B70470707200080B489B00B
:102CA00000AF78607B68FB61FB69BB61BB697B61DE
:102CB0007B695B093B613A690B4B13445B02DA6B3E
:102CC000FB69FB60FB6803F01F03012101FA03F3BA
:102CD0001340002B14BF01230023DBB21846243716
:102CE000BD465DF8047B7047070720002DE990483A
:102CF00082B000AF78604B4B98474B4B98474B489E
:102D00004B4B98474B4B9847002147204A4B9847DD
:102D100000214820484B984700214920464B9847BE
:102D200010214720454B984710214820434B984796
:102D300010214920414B98474720414B9847482054
:102D40003F4B984749203E4B98473E4B9847034698
:102D50004FF0000441F22B714FF0000213EB010B16
:102D600044EB020C58466146374C41F22C724FF04E
:102D70000003A04703460C461846344B98474920A9
:102D8000334B984703469B005CB24820304B984732
:102D900003465B005BB223435CB247202C4B984751
:102DA00003465BB223435BB2DAB22A4B1A707868EF
:102DB000294B98477868294B98477868284B98475B
:102DC000284B984700217420274B984700217520F5
:102DD000254B984700217920234B984700217A20E2
:102DE000214B9847214B98477868214B9847786842
:102DF000204B9847204B98470420204B9847204B66
:102E000001221A70BFF35F8F62B61E481E4B9847AF
:102E100007214FF0FF301D4B984700BF0837BD46D4
:102E2000BDE89088B9F4400091F4400050180E407D
:102E300099EE4000C9294000A92B40008D2A40008E
:102E4000F529400099294000D91041000100402097
:102E50009D2C40009C194120CD2E4000C12F4000E8
:102E60001130400061304000312C400015324000EC
:102E7000C5334000C934400095314000A1274000CF
:102E800088034020E0930400BD28400069284000EA
:102E900080B400AF034B1B781846BD465DF8047B39
:102EA000704700BF9C19412080B582B000AF7860A8
:102EB0000B46FB70FB7819467868034B984700BFB8
:102EC0000837BD4680BD00BF312C400080B582B0C0
:102ED00000AF786001216F20244B98476F20244B6E
:102EE000984701217020214B98477020204B98472C
:102EF0007220204B9847002172201F4B9847732067
:102F00001C4B9847012173201B4B98471B4B0122F8
:102F100083F85C20194B73221A664FF4612218491A
:102F20001648184B98477B68144A1A6002212020E3
:102F30000E4B984720200E4B9847022121200B4B27
:102F4000984721200A4B98470F4B002283F85C20BA
:102F50004FF4E1320D490C480A4B98477B680A4A06
:102F60005A6100BF0837BD4680BD00BF8D2A4000B2
:102F7000412A4000F5294000A92B4000901841202B
:102F800000C0024029114000301941200040024099
:102F900080B500AF0248034B984700BF80BD00BF1B
:102FA000901841208D14400080B500AF0248034BBB
:102FB000984700BF80BD00BF301941208D144000EC
:102FC00080B582B000AF7860002103200B4B98479A
:102FD00003200B4B984700210420084B98470420FE
:102FE000074B984707490848084B98477B68064AAB
:102FF0005A6000BF0837BD4680BD00BF8D2A400023
:10300000412A40000080014004194120490B400042
:1030100080B582B000AF786002217B200B4B9847CF
:103020007B200B4B984702217C20084B98477C2043
:10303000074B984707490848084B98477B68064A5A
:103040009A6000BF0837BD4680BD00BF8D2A400092
:10305000412A400000000640FC184120490B400076
:1030600080B500AF474B98470346002B20D1122074
:10307000454B984700211220444B984701211220CC
:10308000434B98471520404B9847002115203F4B54
:103090009847012115203E4B98471D203A4B9847F1
:1030A00000211D20394B984701211D20384B98479E
:1030B0001420354B984700211420344B98470121A8
:1030C0001420334B984713202F4B9847002113208F
:1030D0002E4B9847012113202D4B98476E202A4BE9
:1030E000984701216E20294B984701216E20284BDB
:1030F0009847244B98470346012B2BD17420224B31
:10310000984700217420214B984701217420204BBF
:10311000984775201C4B9847002175201B4B9847FA
:10312000012175201A4B98477920174B98470021A9
:103130007920164B984701217920154B98477A2022
:10314000114B984700217A20104B984701217A2093
:103150000F4B9847002140200C4B984740200A4BCA
:103160009847012140200A4B984700214120074BF6
:1031700098474120044B984701214120044B984730
:1031800000BF80BD912E4000F5294000312C400049
:10319000A92B4000F8B500AF00216E20194B9847CD
:1031A000194B9847034619464FF000020B46144648
:1031B000DB1844EB04045B1844EB0204660146EAA6
:1031C000D3665D015B1944EB06045B1844EB020413
:1031D00041F22B714FF000025D1844EB02062846C5
:1031E00031460A4C41F22C724FF00003A0470346CF
:1031F0000C461846064B984701216E20014B984714
:1032000000BFF8BD312C400099294000D910410081
:103210000100402080B500AF0720134B98470820DD
:10322000114B9847114B124A1A6000BF0F4B5B6954
:1032300003F08003002BF9D00E4B9B6E03F080034C
:10324000002BF3D00C4B00221A700C4A0B4B1B6A5C
:1032500043F00503136203210220094B9847022023
:10326000084B984700BF80BD412A400010180E400F
:10327000080000A500060E409D19412060180E4070
:1032800069284000E927400080B582B000AF214B9B
:103290009B697B60204B1B78012B13D0022B2FD016
:1032A000002B00D031E07B6803F00403002B29D011
:1032B000184A184B1B6843F003031360164B012296
:1032C0001A701FE07B6803F00103002B1CD0114B28
:1032D0000122DA610F4B00229A600E4B0022DA6065
:1032E0000C4A0C4B1B6823F0030313600A4B0222A9
:1032F0001A70084B00221A620220084B984703E01C
:1033000000BF02E000BF00E000BF00BF0837BD46BD
:1033100080BD00BF60180E409D1941202528400047
:1033200080B485B000AF264B9B6803F07F03FB6041
:10333000234B9B681B0A03F07F03BB60204B9B68F9
:103340001B0C03F03F037B60FB6803F00F01FB687D
:103350001B0903F00F0213469B0013445B000B4450
:10336000FB60BB6803F00F01BB681B0903F00F0291
:1033700013469B0013445B000B44BB607B6803F067
:103380000F017B681B0903F00F0213469B001344D7
:103390005B000B447B60BA6813461B019B1A9B00C1
:1033A00019467B684FF4616202FB03F3CA18FB689D
:1033B000134418461437BD465DF8047B704700BFC0
:1033C00060180E4080B582B000AF7860214B9847FE
:1033D0000346002B1AD122201F4B984700212220A0
:1033E0001E4B984723201C4B9847002123201B4B42
:1033F000984723201A4B98471A4B1B4A5A601B497F
:1034000018481B4B98477B68164ADA60114B98475F
:103410000346012B1AD14E200F4B984702214E2014
:103420000E4B98474C200C4B984702214C200B4BDD
:10343000984725200A4B98470A4B0B4A5A600D497A
:1034400008480B4B98477B68064ADA6000BF08378C
:10345000BD4680BD912E4000412A40008D2A40008B
:10346000AD2940000C19412040420F0000000340EC
:10347000190540000040034080B500AF0248034BEF
:10348000984700BF80BD00BF0C194120F5084000DF
:1034900080B400AF00BF00BFBD465DF8047B70473D
:1034A00080B500AF0248034B984700BF80BD00BF06
:1034B0000C194120F508400080B400AF00BF00BFE8
:1034C000BD465DF8047B704780B582B000AF786080
:1034D000154A154B1B6F23F400431367124A124B16
:1034E0005B6F43F4004353670F4A0F4B5B6843F431
:1034F000004353600D4B4FF000421A610C4B0D4AD4
:103500005A600B4B0C4A9A607B681B68084AD36070
:103510000A4907480A4B98477B68054A1A6100BF69
:103520000837BD4680BD00BF000E0E4000060E40AD
:1035300020194120F91240001D13400000000240F4
:10354000010E400090B585B002AF78607B681B68C3
:10355000002B05D1194B1A4A1C211A481A4CA047B6
:10356000002300930023012200214FF48050174CC8
:10357000A04702467B685A61002300930023012282
:1035800000214FF48050114CA04702467B689A619D
:1035900001200F4B984702467B68DA607B68002267
:1035A0001A777B6898687B685B7CFF221946094B19
:1035B000984700BF0C37BD4690BD00BF3C4141005D
:1035C0006C41410050414100E91341008D4E4000E3
:1035D0005D4440003106400090B593B000AF786084
:1035E0007B68002B05D13F4B3F4A2C213F48404C84
:1035F000A0477B683B643B6C586907F114014FF0AE
:10360000FF3310223B4CA047F863FB6B002B64D0C8
:1036100007F1140107F10803FA6B1846364B984777
:10362000034687F83B3097F83B3083F00103DBB269
:10363000002B54D13B7A342B31D100237B643B6C7B
:103640001B7F002B02D0012B0FD01DE0FB681B78E5
:103650001A06BB7A1B041A433B6C5B7C1B021343A8
:103660003A6C127C13437B640EE0FB681B781A06ED
:103670003B6C1B7C1B041A433B6C5B7C1B0213439F
:10368000BA7A13437B6400BF3B6C1C683B6C986840
:10369000FB689A1CFB6801331B78796CA0473B7A66
:1036A000362BA8D1FB6801331B781A06BB7A1B04A2
:1036B0001A433B6C5B7C1B021343FA68127813437A
:1036C0007B633B6C1C683B6C9868FB68DA1CFB688E
:1036D00002331B78796BA0478DE700BF8BE700BFF3
:1036E00089E700BF644141007C41410050414100F5
:1036F000E91341008953400025D5400090B595B0AD
:1037000000AF78607B68002B05D12C4B2C4A8221BE
:103710002C482D4CA0477B68FB6407F1340302332F
:10372000FB62FB6C5C68FB6C986807F1300307F187
:103730002C0207F14401A0470346002BEDD00023E3
:1037400087F8213007F134037B623B6BDBB2023335
:10375000DBB287F82830342387F820307B6C1B0ECF
:10376000DBB203F01F03DBB287F834303B6BDBB214
:1037700087F83530FB6C1B7F002B04D17B6C1B0C56
:10378000DBB287F82230FB6C1B7F012B03D17B6CF3
:10379000DBB287F8223007F1200207F10C03114653
:1037A00018460A4B9847B864FB6C986907F10C01FE
:1037B0001423BA6C064CA047AFE700BF6441410038
:1037C0009041410050414100E91341008DD5400036
:1037D0001150400090B585B000AF786039607B68CB
:1037E000DB68C82118460B4B98477B689B68396893
:1037F0001846094B98470346FB737B68D86800233B
:1038000000220021054CA047FB7B18461437BD461B
:1038100090BD00BFBD4840002507400095444000D2
:1038200090B583B000AF78600B46FB707B68DB68B7
:10383000C82118460A4B98477B689B68FA7811465E
:103840001846084B98477B68D8680023002200215F
:10385000054CA047012318460C37BD4690BD00BF5C
:10386000BD4840008D0640009544400090B583B0AF
:1038700000AF78600B46FB707B68DB68C821184698
:10388000164B9847FB78002B02D0012B0CD019E087
:103890007B6800221A777B6898687B685B7CFF22D4
:1038A00019460F4B98470DE07B6801221A777B6819
:1038B00098687B685B7C1B044FF47F021946084BB9
:1038C000984700BF7B68D868002300220021054C80
:1038D000A047012318460C37BD4690BDBD484000A7
:1038E000310640009544400090B583B000AF786049
:1038F0000B46FB707B68DB684FF4FA7118460B4B84
:1039000098470346012B0BD17B68FA781A747B68C1
:10391000D868002300220021054CA047012300E0C5
:10392000002318460C37BD4690BD00BFBD4840007F
:103930009544400090B5A7B002AFF860B960C7E900
:1039400000232D4BD7E90001984702462B4B104628
:10395000984702460B462A4CD7E90001A047034688
:103960000C46C7E92234F868FB6803F1180107F137
:1039700070030093D7E92223224CA047FB6803F190
:103980001800BB6803F1300107F158030093D7E931
:1039900022231C4CA047BB6803F13000B96807F133
:1039A00040030093D7E92223164CA04707F15801A2
:1039B00007F1700007F128030093D7E92223114C87
:1039C000A04707F1400107F1580007F110030093E9
:1039D000D7E922230B4CA04707F1100107F128007B
:1039E000D7F8A0300093D7E92223064CA04700BFA8
:1039F0009437BD4690BD00BF99104100FD094100BC
:103A000081074100093A4000F0B585B000AFF86089
:103A1000B960C7E90023FB68D3E90045BB68D3E977
:103A20000001FB68D3E900232A4EB04702460B464B
:103A300010461946284ED7E90023B04702460B46E8
:103A4000264E20462946B04703460C46BA6AC2E9CC
:103A50000034FB68D3E90245BB68D3E90201FB6887
:103A6000D3E902231B4EB04702460B4610461946C7
:103A7000194ED7E90023B04702460B46174E2046A1
:103A80002946B04703460C46BA6AC2E90234FB68CD
:103A9000D3E90445BB68D3E90401FB68D3E90423F7
:103AA0000C4EB04702460B46104619460A4ED7E95F
:103AB0000023B04702460B46084E20462946B04731
:103AC00003460C46BA6AC2E9043400BF1437BD4647
:103AD000F0BD00BF81074100E90A410085074100B0
:103AE00080B483B000AF78607B6803F108027B6824
:103AF0005A607B684FF0FF329A607B6803F10802DE
:103B00007B68DA607B6803F108027B681A617B6876
:103B100000221A6000BF0C37BD465DF8047B704779
:103B200080B483B000AF78607B6800221A6100BF68
:103B30000C37BD465DF8047B704780B485B000AF9C
:103B4000786039607B685B68FB603B68FA685A6044
:103B5000FB689A683B689A60FB689B683A685A60A1
:103B6000FB683A689A603B687A681A617B681B68F0
:103B70005A1C7B681A6000BF1437BD465DF8047B91
:103B8000704780B485B000AF786039603B681B68CF
:103B9000BB60BB68B3F1FF3F03D17B681B69FB606F
:103BA0000CE07B680833FB6002E0FB685B68FB604D
:103BB000FB685B681A68BB689A42F6D9FB685A686A
:103BC0003B685A603B685B683A689A603B68FA6891
:103BD0009A60FB683A685A603B687A681A617B6849
:103BE0001B685A1C7B681A6000BF1437BD465DF81D
:103BF000047B704780B485B000AF78607B681B6938
:103C0000FB607B685B687A6892689A607B689B68F7
:103C10007A6852685A60FB685A687B689A4203D196
:103C20007B689A68FB685A607B6800221A61FB68AF
:103C30001B685A1EFB681A60FB681B68184614371D
:103C4000BD465DF8047B704780B485B000AFF86076
:103C5000B9607A60FB68043BFB60FB684FF08072E0
:103C60001A60FB68043BFB60BB6823F00102FB6841
:103C70001A60FB68043BFB600C4AFB681A60FB6837
:103C8000143BFB607A68FB681A60FB68043BFB60CE
:103C9000FB686FF002021A60FB68203BFB60FB6868
:103CA00018461437BD465DF8047B7047B13C4000B0
:103CB00080B485B000AF00237B60134B1B68B3F169
:103CC000FF3F0BD04FF0600372B683F31188BFF350
:103CD0006F8FBFF34F8F62B6FB60FEE74FF060035C
:103CE00072B683F31188BFF36F8FBFF34F8F62B645
:103CF000BB6000BF7B68002BFCD000BF1437BD4603
:103D00005DF8047B704700BF0C00402000000000FD
:103D1000074B19680868B0E8F04F80F30988BFF3D3
:103D20006F8F4FF0000080F311887047AFF3008071
:103D3000A419412000BF00BF08480068006880F354
:103D400008884FF0000080F3148862B661B6BFF3B4
:103D50004F8FBFF36F8F00DF00BF000008ED00E062
:103D600000BF00BF80B58AB000AF584B1B687B62B4
:103D70007B6A2C331B68564A93420BD04FF060038A
:103D800072B683F31188BFF36F8FBFF34F8F62B6A4
:103D9000FB61FEE77B6A38331B684E4A93420BD0C7
:103DA0004FF0600372B683F31188BFF36F8FBFF3D8
:103DB0004F8F62B6BB61FEE70023BB60464B3B62A0
:103DC0003B6A1B78DBB2FB733B6AFF221A703B6ACB
:103DD0001B78DBB2FB71FB79DBB203F06003DAB274
:103DE0003E4B1A703D4B1B78002B0BD14FF06003FC
:103DF00072B683F31188BFF36F8FBFF34F8F62B634
:103E00007B61FEE7FB79DBB2DB4303F06003002B51
:103E100013D04FF0600372B683F31188BFF36F8F36
:103E2000BFF34F8F62B63B61FEE7BB680133BB60F7
:103E3000FB79DBB25B00DBB2FB71FB79DBB203F039
:103E40008003802BF1D0BB68082B03D1244B0022C8
:103E50001A6004E0BB68C3F10703214A1360204BDA
:103E60001B681B021E4A13601D4B1B6803F4E063B2
:103E70001B4A1360FB7BDAB23B6A1A70194A194B72
:103E80001B6843F47F031360164A164B1B6843F00C
:103E90007F431360144B00221A60144B9847144B55
:103EA00000221A60134B9847134A134B1B6843F0C8
:103EB00040431360114B9847114B9847114B98475B
:103EC000002318462837BD4680BD00BF08ED00E03E
:103ED000113D4000C13F400000E400E09E19412038
:103EE000A019412020ED00E01CED00E071404000F1
:103EF0000C004020A940400034EF00E0393D400074
:103F000041644000B13C400080B483B000AF4FF04A
:103F1000600372B683F31188BFF36F8FBFF34F8FC7
:103F200062B67B600F4B1B6801330E4A13600D4B6A
:103F30001B68012B10D10C4B1B68DBB2002B0BD084
:103F40004FF0600372B683F31188BFF36F8FBFF336
:103F50004F8F62B63B60FEE700BF0C37BD465DF891
:103F6000047B70470C00402004ED00E080B483B077
:103F700000AF124B1B68002B0BD14FF0600372B6E1
:103F800083F31188BFF36F8FBFF34F8F62B67B60EF
:103F9000FEE70A4B1B68013B084A1360074B1B688E
:103FA000002B04D100233B603B6883F3118800BFE2
:103FB0000C37BD465DF8047B704700BF0C00402005
:103FC000EFF30980BFF36F8F154B1A681EF0100FC7
:103FD00008BF20ED108A20E9F04F10602DE909009C
:103FE0004FF0600072B680F31188BFF34F8FBFF3BC
:103FF0006F8F62B602F024FA4FF0000080F3118850
:1040000009BC19680868B0E8F04F1EF0100F08BF2F
:10401000B0EC108A80F30988BFF36F8F704700BF40
:10402000A419412000BF00BF80B582B000AF4FF09F
:10403000600372B683F31188BFF36F8FBFF34F8FA6
:1040400062B67B60084B98470346002B03D0074BB2
:104050004FF080521A6000233B603B6883F3118865
:1040600000BF0837BD4680BDF561400004ED00E0AB
:1040700080B400AF084B00221A60084B00221A607F
:10408000074B084A1A60044B07221A6000BFBD465E
:104090005DF8047B704700BF10E000E018E000E02E
:1040A00014E000E0DF930400DFF80C00016841F445
:1040B000700101607047000088ED00E000BF00BFA4
:1040C00080B485B000AFEFF30583FB60FB680F2B76
:1040D00015D9184AFB6813441B78FB72164B1B78E2
:1040E000FA7A9A420BD24FF0600372B683F31188CA
:1040F000BFF36F8FBFF34F8F62B67B60FEE70F4B4E
:104100001B6803F4E0620E4B1B689A420BD94FF018
:10411000600372B683F31188BFF36F8FBFF34F8FC5
:1041200062B63B60FEE700BF1437BD465DF8047B16
:10413000704700BFF0E300E09E1941200CED00E065
:10414000A019412080B586B000AF786039600123A6
:104150007B617B683B613B69002B0BD14FF06003B7
:1041600072B683F31188BFF36F8FBFF34F8F62B6C0
:10417000FB60FEE73B69002B5AD03B69DB6B002BF1
:1041800056D03B69DB6B4FF0FF32B2FBF3F23B6979
:104190001B6C9A424CD3314B98473B691A683B6978
:1041A000DB6B3969096C01FB03F31A443B699A60C4
:1041B0003B6900229A633B691A683B695A603B6914
:1041C0001A683B69DB6B013B3969096C01FB03F33E
:1041D0001A443B69DA603B69FF2283F844203B695B
:1041E000FF2283F845203B68002B14D13B691B69F3
:1041F000002B1AD03B6910331846194B98470346D9
:10420000002B12D0174B4FF080521A60BFF34F8F24
:10421000BFF36F8F09E03B6910331846124B984784
:104220003B6924331846104B9847104B984701E0E0
:1042300000237B617B69002B0BD14FF0600372B6CA
:1042400083F31188BFF36F8FBFF34F8F62B6BB60EC
:10425000FEE77B6918461837BD4680BD093F400020
:104260003166400004ED00E0E13A40006D3F40005F
:1042700090B58DB002AFF860B9607A603B60002302
:104280007B623B68002B0BD14FF0600372B683F367
:104290001188BFF36F8FBFF34F8F62B63B62FEE7AB
:1042A000FB68002B31D03B68002B2ED07B68002BA5
:1042B00002D0BB68002B28D07B68002B02D1BB68E2
:1042C000002B22D148237B617B69482B0BD04FF018
:1042D000600372B683F31188BFF36F8FBFF34F8F04
:1042E00062B6FB61FEE77B693B687B627B6A012209
:1042F00083F8462097F838207B6A009313467A6843
:10430000B968F8680B4CA0470EE07B6A002B0BD114
:104310004FF0600372B683F31188BFF36F8FBFF362
:104320004F8F62B6BB61FEE77B6A18462C37BD46ED
:1043300090BD00BFE143400090B58BB002AFF86084
:10434000B9601346FB710023FB61FB68002B2FD083
:104350004FF0FF32FB68B2FBF3F2BB689A4227D3FF
:10436000FB68BA6802FB03F313F1490F20D8FB681E
:10437000BA6802FB03F3BB61BB6948331846164BAE
:104380009847F861FB69002B21D0FB697B617B6951
:1043900048337B61FB69002283F84620FA79FB6988
:1043A000009313467A69B968F8680C4CA0470EE090
:1043B000FB69002B0BD14FF0600372B683F31188B9
:1043C000BFF36F8FBFF34F8F62B63B61FEE7FB69B0
:1043D00018462437BD4690BD25164000E1434000F5
:1043E00080B584B000AFF860B9607A60FB70BB68DC
:1043F000002B03D1BB69BA691A6002E0BB697A6815
:104400001A60BB69FA68DA63BB69BA681A64012189
:10441000B869034B984700BF1037BD4680BD00BF49
:104420004541400090B583B000AF78607B68002BB9
:104430000ED07B6800229A607B6800221A607B683D
:104440000022DA600023002200217868024CA04795
:1044500000BF0C37BD4690BD9544400080B586B086
:1044600000AF0346FB7101237B6100233B61FB79B5
:104470001A4639697869054B9847F860F868044B23
:104480009847FB6818461837BD4680BD3943400041
:104490002544400080B58EB000AFF860B9607A6006
:1044A0003B6000237B63FB683B633B6B002B0BD1C2
:1044B0004FF0600372B683F31188BFF36F8FBFF3C1
:1044C0004F8F62B6BB62FEE7BB68002B03D13B6B2C
:1044D0001B6C002B01D1012300E00023002B0BD12A
:1044E0004FF0600372B683F31188BFF36F8FBFF391
:1044F0004F8F62B67B62FEE73B68022B03D13B6BBA
:10450000DB6B012B01D1012300E00023002B0BD139
:104510004FF0600372B683F31188BFF36F8FBFF360
:104520004F8F62B63B62FEE75A4B98470346002B1B
:1045300002D17B68002B01D1012300E00023002B76
:104540000BD14FF0600372B683F31188BFF36F8F06
:10455000BFF34F8F62B6FB61FEE74F4B98473B6B53
:104560009A6B3B6BDB6B9A4202D33B68022B29D1DF
:104570003A68B968386B494B9847F8623B6B5B6A9D
:10458000002B10D03B6B24331846454B984703460D
:10459000002B13D0434B4FF080521A60BFF34F8F64
:1045A000BFF36F8F0AE0FB6A002B07D03D4B4FF043
:1045B00080521A60BFF34F8FBFF36F8F3A4B98470B
:1045C000012363E07B68002B03D1374B984700231E
:1045D0005CE07B6B002B06D107F114031846334BCC
:1045E000984701237B63304B9847314B98472A4BC0
:1045F00098473B6B93F844305BB2B3F1FF3F03D174
:104600003B6B002283F844203B6B93F845305BB250
:10461000B3F1FF3F03D13B6B002283F84520224BCF
:1046200098473A1D07F1140311461846214B984745
:104630000346002B24D1386B1F4B98470346002BB1
:1046400018D03B6B10337A68114618461B4B9847BD
:10465000386B1B4B98471B4B98470346002B7FF446
:104660007CAF104B4FF080521A60BFF34F8FBFF3F7
:104670006F8F72E7386B124B9847124B98476CE775
:10468000386B0F4B98470F4B984700231846383725
:10469000BD4680BD396B4000093F4000294B4000BA
:1046A0003166400004ED00E06D3F40003D68400091
:1046B000995F4000696840003D4D40004D654000F5
:1046C000554C4000B55F400080B58CB000AFF8603D
:1046D000B9607A600023FB62FB68BB62BB6A002B97
:1046E0000BD14FF0600372B683F31188BFF36F8F65
:1046F000BFF34F8F62B63B62FEE7BB68002B03D16E
:10470000BB6A1B6C002B01D1012300E00023002BAE
:104710000BD14FF0600372B683F31188BFF36F8F34
:10472000BFF34F8F62B6FB61FEE7574B98470346D6
:10473000002B02D17B68002B01D1012300E0002374
:10474000002B0BD14FF0600372B683F31188BFF3D7
:104750006F8FBFF34F8F62B6BB61FEE74B4B98473D
:10476000BB6A9B6B7B627B6A002B1FD0B968B86AFF
:10477000474B98477B6A5A1EBB6A9A63BB6A1B69A0
:10478000002B0FD0BB6A10331846424B98470346A4
:10479000002B07D0404B4FF080521A60BFF34F8F71
:1047A000BFF36F8F3D4B9847012369E07B68002B77
:1047B00003D13A4B9847002362E0FB6A002B06D1F5
:1047C00007F110031846364B98470123FB62334B21
:1047D0009847344B98472D4B9847BB6A93F8443021
:1047E0005BB2B3F1FF3F03D1BB6A002283F84420E0
:1047F000BB6A93F845305BB2B3F1FF3F03D1BB6AAC
:10480000002283F84520254B98473A1D07F11003F5
:1048100011461846244B98470346002B23D1B86A0B
:10482000224B98470346002B17D0BB6A24337A6883
:10483000114618461E4B9847B86A1E4B98471E4BA8
:1048400098470346002B89D1134B4FF080521A60D2
:10485000BFF34F8FBFF36F8F80E7B86A154B984750
:10486000154B98477AE7B86A124B9847124B98470E
:10487000B86A0E4B98470346002B3FF46FAF0023F6
:1048800018463037BD4680BD396B4000093F4000B7
:10489000054C40003166400004ED00E06D3F4000F3
:1048A0003D684000995F400069684000094D400044
:1048B0004D654000554C4000B55F400080B58CB060
:1048C00000AF786039600023FB627B687B62002365
:1048D000BB627B6A002B0BD14FF0600372B683F38F
:1048E0001188BFF36F8FBFF34F8F62B6BB61FEE7D6
:1048F0007B6A1B6C002B0BD04FF0600372B683F306
:104900001188BFF36F8FBFF34F8F62B67B61FEE7F5
:10491000694B98470346002B02D13B68002B01D11D
:10492000012300E00023002B0BD14FF0600372B68F
:1049300083F31188BFF36F8FBFF34F8F62B63B6174
:10494000FEE75E4B98477B6A9B6B3B623B6A002BA2
:1049500024D03B6A5A1E7B6A9A637B6A1B68002BD1
:1049600004D1574B984702467B6A9A607B6A1B6961
:10497000002B0FD07B6A10331846524B98470346E2
:10498000002B07D0504B4FF080521A60BFF34F8F6F
:10499000BFF36F8F4D4B9847012389E03B68002B95
:1049A00003D14A4B9847002382E0FB6A002B06D1D3
:1049B00007F108031846464B98470123FB62434B17
:1049C0009847444B98473D4B98477B6A93F844304F
:1049D0005BB2B3F1FF3F03D17B6A002283F844202E
:1049E0007B6A93F845305BB2B3F1FF3F03D17B6A3A
:1049F000002283F84520354B98473A4607F10803D3
:104A000011461846344B98470346002B32D1786A3A
:104A1000324B98470346002B26D07B6A1B68002B3D
:104A200009D1264B98477B6A9B6818462C4B9847C0
:104A3000B862264B98477B6A24333A681146184679
:104A4000284B9847786A284B9847284B9847034645
:104A5000002B7FF476AF1C4B4FF080521A60BFF3EF
:104A60004F8FBFF36F8F6CE7786A1F4B98471F4BD0
:104A7000984766E7786A1C4B98471C4B9847786ABA
:104A8000164B98470346002B3FF45BAFBB6A002BE5
:104A90000DD00A4B9847786A154B9847F8617B6AA6
:104AA0009B68F9691846134B9847084B98470023B1
:104AB00018463037BD4680BD396B4000093F400085
:104AC000896F40003166400004ED00E06D3F40001A
:104AD0003D684000995F400069684000094D400012
:104AE000756B40004D654000554C4000B55F40007F
:104AF000F94A40000D6E400080B485B000AF786088
:104B00007B685B6A002B06D07B681B6B1B68C3F15C
:104B10000503FB6001E00023FB60FB6818461437C7
:104B2000BD465DF8047B704780B586B000AFF86085
:104B3000B9607A6000237B61FB689B6B3B61FB681B
:104B40001B6C002B0DD1FB681B68002B4DD1FB6843
:104B50009B681846294B98477861FB6800229A6049
:104B600043E07B68002B19D1FB685868FB681B6C1D
:104B70001A46B968224B9847FB685A68FB681B6C59
:104B80001A44FB685A60FB685A68FB689B689A4243
:104B90002BD3FB681A68FB685A6026E0FB68D8686C
:104BA000FB681B6C1A46B968154B9847FB68DA68B6
:104BB000FB681B6C5B421A44FB68DA60FB68DA68CE
:104BC000FB681B689A4207D2FB689A68FB681B6CFB
:104BD0005B421A44FB68DA607B68022B05D13B69B3
:104BE000002B02D03B69013B3B613B695A1CFB68CF
:104BF0009A637B6918461837BD4680BDB96C400082
:104C0000A914410080B582B000AF786039607B683C
:104C10001B6C002B18D07B68DA687B681B6C1A440D
:104C20007B68DA607B68DA687B689B689A4203D3AA
:104C30007B681A687B68DA607B68D9687B681B6C64
:104C40001A463868024B984700BF0837BD4680BDFA
:104C5000A914410080B584B000AF7860264B984716
:104C60007B6893F84530FB7311E07B685B6A002B2F
:104C700012D07B6824331846204B98470346002BFC
:104C800001D01F4B9847FB7B013BDBB2FB7397F9CD
:104C90000F30002BE9DC00E000BF7B68FF2283F8C7
:104CA0004520184B9847144B98477B6893F844303D
:104CB000BB7311E07B681B69002B12D07B6810333B
:104CC00018460E4B98470346002B01D00C4B9847D3
:104CD000BB7B013BDBB2BB7397F90E30002BE9DCE9
:104CE00000E000BF7B68FF2283F84420054B984713
:104CF00000BF1037BD4680BD093F4000316640000F
:104D0000456940006D3F400080B584B000AF7860D9
:104D1000084B98477B689B6B002B02D10123FB60FB
:104D200001E00023FB60044B9847FB6818461037EE
:104D3000BD4680BD093F40006D3F400080B584B056
:104D400000AF7860094B98477B689A6B7B68DB6B98
:104D50009A4202D10123FB6001E00023FB60044B77
:104D60009847FB6818461037BD4680BD093F400094
:104D70006D3F400080B487B000AF78603960002399
:104D80003B617B68002B0BD14FF0600372B683F35D
:104D90001188BFF36F8FBFF34F8F62B6FB60FEE7E2
:104DA0003B68002B24D000237B611EE0184A7B69FE
:104DB000DB0013445A687B689A4205D17B69DB00AB
:104DC000134A13443B6113E03B69002B0AD1104A9C
:104DD0007B6952F83330002B04D17B69DB000C4A2D
:104DE00013443B617B6901337B617B69072BDDD910
:104DF0003B69002B05D03B693A681A603B697A68C9
:104E00005A6000BF1C37BD465DF8047B704700BF89
:104E10001C2B412080B586B000AFF860B9607A6085
:104E2000FB687B61154B98477B6993F844305BB214
:104E3000B3F1FF3F03D17B69002283F844207B69F3
:104E400093F845305BB2B3F1FF3F03D17B69002299
:104E500083F845200A4B98477B699B6B002B06D152
:104E60007B6924337A68B9681846064B9847786995
:104E7000054B984700BF1837BD4680BD093F40002D
:104E80006D3F4000A1654000554C400090B58FB08B
:104E900004AFF860B9607A603B607B68012B11D188
:104EA000012387F82330FB68042B32D84FF06003CE
:104EB00072B683F31188BFF36F8FBFF34F8F62B663
:104EC000FB61FEE77B68022B11D1042387F82330B6
:104ED000FB68002B1DD14FF0600372B683F311887D
:104EE000BFF36F8FBFF34F8F62B6BB61FEE7002346
:104EF00087F82330FB68002B0BD14FF0600372B6AC
:104F000083F31188BFF36F8FBFF34F8F62B67B615E
:104F1000FEE7BA68FB689A420BD94FF0600372B69D
:104F200083F31188BFF36F8FBFF34F8F62B63B617E
:104F3000FEE7BB68002B01D10123BB60FB6803F1D6
:104F40002502FB689A4209D9FB680133FB60FB68C4
:104F5000243318460E4B9847786201E000237B62A9
:104F60007B6A002B0ED07B6A03F12401BB6B02939A
:104F70003B68019397F823300093BB68FA68786A1E
:104F8000044CA0477B6A18462C37BD4690BD00BF35
:104F9000251640008957400080B487B000AF786084
:104FA0007B683B613B69002B0BD14FF0600372B60D
:104FB00083F31188BFF36F8FBFF34F8F62B6BB606F
:104FC000FEE73B691B68FB603B699A683B691B68AD
:104FD00013447B613B695B687A69D31A7B613B69E7
:104FE0001A68FB689A42ECD17B69013B7B613B69A3
:104FF0009A687B699A4204D83B699B687A69D31A9C
:105000007B617B6918461C37BD465DF8047B7047A1
:1050100090B593B002AFF860B9607A603B60FB680E
:105020007B630023FB637B68BB6300233B63BB683C
:10503000002B0BD14FF0600372B683F31188BFF3DE
:105040006F8FBFF34F8F62B6BB62FEE77B6B002BA7
:105050000BD14FF0600372B683F31188BFF36F8FEB
:10506000BFF34F8F62B67B62FEE77B6B9B68013BB1
:105070003B637B6B1B7F03F00103002B19D0BB6BE1
:105080000433BB63BA6B7B689A420BD84FF0600362
:1050900072B683F31188BFF36F8FBFF34F8F62B681
:1050A0003B62FEE7BA6B3B6B9A4208D900233B6038
:1050B00005E0BA6B3B6B9A4201D93B6BBB633B6823
:1050C000002B45D007F1140318463C4B98473C4B46
:1050D0009847786B3B4B9847F863FA6BBB6B9A42E7
:1050E0001BD27B6B1B6A19460020374B98477B6BA2
:1050F0005B69002B0BD04FF0600372B683F311880D
:10510000BFF36F8FBFF34F8F62B6FB61FEE72F4B8C
:10511000984702467B6B5A6102E02D4B984717E097
:105120002B4B98477B6B186A3B6800930023002247
:105130000021284CA0477B6B00225A613A4607F1B8
:10514000140311461846244B98470346002BBED043
:10515000FB6B002B03D1786B1A4B9847F863BB6B42
:105160000093FB6B7A68B968786B1C4CA047F862B7
:10517000FB6A002B1CD0786B194B984702467B6B5F
:10518000DB689A4214D3174B98477B6B1B69002B43
:105190000CD07B6B18697B6B196A0023009300238A
:1051A0000022114CA0477B6B00221A610F4B9847DD
:1051B000FB6A18464437BD4690BD00BFE567400016
:1051C000093F4000994F40003D764000196B400078
:1051D0006D3F4000B96F400069684000F1524000E7
:1051E00049574000995F4000FD704000B55F4000A6
:1051F00090B591B002AFF860B9607A603B60FB682F
:105200003B637B687B63BB68002B0BD14FF0600373
:1052100072B683F31188BFF36F8FBFF34F8F62B6FF
:105220003B62FEE73B6B002B0BD14FF0600372B685
:1052300083F31188BFF36F8FBFF34F8F62B6FB61AB
:10524000FEE73B6B1B7F03F00103002B02D07B6B5F
:1052500004337B63386B224B9847F8627B6B009377
:10526000FB6A7A68B968386B1E4CA047B862BB6AA3
:10527000002B2FD0386B1C4B984702463B6BDB68EA
:105280009A4227D3EFF311824FF0600372B683F393
:105290001188BFF36F8FBFF34F8F62B6BA617B6126
:1052A000BB697B623B6B1B69002B0ED03B6B1869A3
:1052B0003B6B196A3B680193002300930023002293
:1052C0000A4CA0473B6B00221A617B6A3B613B6939
:1052D00083F31188BB6A18463C37BD4690BD00BFBA
:1052E000994F4000F152400049574000657340001B
:1052F00090B589B000AFF860B9607A603B60FB6838
:105300005B68FB61FB681B7F03F00103002B21D06E
:105310007B687B617A697B689A420BD04FF06003AF
:1053200072B683F31188BFF36F8FBFF34F8F62B6EE
:10533000BB61FEE73A683B6B9A4208D307F1140160
:10534000FB690422F8680F4CA047F86108E00023CD
:105350007B6005E07A683B68934228BF13467B6018
:105360007B68002B08D0FB697A68B968F868054C3F
:10537000A0470246FB685A607B6818462437BD4642
:1053800090BD00BF8555400090B58FB002AFF8606A
:10539000B9607A603B60FB683B620023FB62BB68DC
:1053A000002B0BD14FF0600372B683F31188BFF36B
:1053B0006F8FBFF34F8F62B6FB61FEE73B6A002B36
:1053C0000BD14FF0600372B683F31188BFF36F8F78
:1053D000BFF34F8F62B6BB61FEE73B6A1B7F03F0F2
:1053E0000103002B02D004237B620BE03B6A1B7F8E
:1053F00003F00403002B03D03B6ADB687B6201E00F
:1054000000237B623B68002B3BD0344B9847386AC3
:10541000334B9847B862BA6A7B6A9A421AD83B6A99
:105420001B6A194600202F4B98473B6A1B69002BCB
:105430000BD04FF0600372B683F31188BFF36F8F08
:10544000BFF34F8F62B67B61FEE7274B984702465A
:105450003B6A1A61254B9847BA6A7B6A9A4214D80C
:105460003B6A186A3B680093002300220021204C0D
:10547000A0473B6A00221A61386A194B9847B86204
:1054800003E0386A164B9847B862BA6A7B6A9A4258
:105490001ED9BB6A7A68B968386A164CA047F862A8
:1054A000FB6A002B14D0144B9847FB685B69002BF8
:1054B0000CD0FB685869FB68196A0023009300232D
:1054C00000220E4CA047FB6800225A610C4B984703
:1054D000FB6A18463437BD4690BD00BF093F400007
:1054E000495740003D764000196B40006D3F400039
:1054F000B96F400005554000995F4000FD704000C5
:10550000B55F400090B589B000AFF860B9607A60CF
:105510003B60FB681B68BB61FB681B7F03F00103FA
:10552000002B13D007F11001BB690422F868144C5A
:10553000A047B8613B69FB613B68043B3B60FA698B
:105540007B689A4204D90023FB6101E07B68FB6120
:105550003A68FB69934228BF13467B617B69002B45
:1055600008D0BB697A69B968F868054CA04702465B
:10557000FB681A607B6918462437BD4690BD00BFA2
:105580006956400080B588B000AFF860B9607A60B5
:105590003B607B68002B0BD14FF0600372B683F346
:1055A0001188BFF36F8FBFF34F8F62B6BB61FEE709
:1055B000FB689A683B68D21A7B68934228BF1346FF
:1055C000FB613A68FB691A44FB689B689A420BD9F5
:1055D0004FF0600372B683F31188BFF36F8FBFF390
:1055E0004F8F62B67B61FEE7FB689A693B681344A4
:1055F000FA69B96818461B4B98477A68FB699A4262
:105600001DD97A68FB69D21AFB689B689A420BD94C
:105610004FF0600372B683F31188BFF36F8FBFF34F
:105620004F8F62B63B61FEE7FB689869BA68FB6919
:10563000D1187A68FB69D31A1A460A4B98473A6818
:105640007B6813443B60FB689A683B689A4204D8C5
:10565000FB689B683A68D31A3B603B681846203762
:10566000BD4680BDA914410080B588B000AFF86088
:10567000B9607A603B607B68002B0BD14FF0600310
:1056800072B683F31188BFF36F8FBFF34F8F62B68B
:10569000BB61FEE7FB689A683B68D21A7B6893425D
:1056A00028BF1346FB61FA697B689A420BD94FF019
:1056B000600372B683F31188BFF36F8FBFF34F8F10
:1056C00062B67B61FEE73A68FB691A44FB689B6837
:1056D0009A420BD94FF0600372B683F31188BFF37F
:1056E0006F8FBFF34F8F62B63B61FEE7FB689A692D
:1056F0003B681344FA691946B868124B98477A68B0
:10570000FB699A420AD9BA68FB69D018FB689969A3
:105710007A68FB69D31A1A460A4B98473A687B683D
:1057200013443B60FB689A683B689A4204D8FB6864
:105730009B683A68D31A3B603B6818462037BD46E1
:1057400080BD00BFA914410080B485B000AF78606F
:105750007B689A687B685B681344FB607B681B68A6
:10576000FA68D31AFB607B689A68FB689A4204D88F
:105770007B689B68FA68D31AFB60FB68184614378D
:10578000BD465DF8047B704780B586B000AFF86019
:10579000B9607A603B607A685521B868154B9847C4
:1057A0000246BB689A420BD04FF0600372B683F397
:1057B0001188BFF36F8FBFF34F8F62B67B61FEE737
:1057C00024220021F8680B4B9847FB68BA689A615D
:1057D000FB687A689A60FB683A68DA60FB6897F859
:1057E00020201A77FB6800221A6200BF1837BD46D6
:1057F00080BD00BFDD15410090B58FB004AFF860EB
:10580000B9607A603B60FB6B002B0BD14FF06003FB
:1058100072B683F31188BFF36F8FBFF34F8F62B6F9
:105820003B62FEE73B6C002B0BD14FF0600372B67E
:1058300083F31188BFF36F8FBFF34F8F62B6FB61A5
:10584000FEE754237B617B69542B0BD04FF0600340
:1058500072B683F31188BFF36F8FBFF34F8F62B6B9
:10586000BB61FEE77B693B6C002B1FD0FB6B002B01
:105870001CD03B6C7B6254220021786A0F4B984706
:105880007B6AFA6B1A637B6A022283F85120002339
:1058900003937B6A02937B6C0193BB6B00933B6821
:1058A0007A68B968F868064CA04701E000237B627B
:1058B0007B6A18462C37BD4690BD00BFDD15410000
:1058C000F559400090B58BB004AFF860B9607A60CC
:1058D0003B6000233B6107F1100303933B6B029392
:1058E000FB6A0193BB6A00933B687A68B968F86801
:1058F000064CA04778617B69002B02D07869044B85
:1059000098473B6918461C37BD4690BDF957400083
:10591000215B400090B58BB004AFF860B9607A604D
:105920003B607B689B0018461A4B984738613B697F
:10593000002B13D05420174B984778617B69002BBC
:1059400008D0542200217869134B98477B693A6943
:105950001A6305E03869114B984701E000237B6129
:105960007B69002B11D07B69002283F85120002332
:1059700003937B690293FB6A0193BB6A00933B68C4
:105980007A68B968F868064CA0477B6918461C37E6
:10599000BD4690BD25164000DD154100A118400010
:1059A000F559400090B589B002AFF860B9607A60EF
:1059B0003B60FB6A0193BB6A00933B687A68B968F5
:1059C000F8680A4CA04738613B69002B05D038695C
:1059D000074B984701237B6102E04FF0FF337B6167
:1059E0007B6918461C37BD4690BD00BF1559400065
:1059F000215B400080B588B000AFF860B9607A6084
:105A00003B603B6B186B7B689B001A46A521414BA2
:105A100098473B6B1A6B79686FF040430B449B00CF
:105A20001344BB61BB6923F00703BB61BB6903F08F
:105A30000703002B0BD04FF0600372B683F311887D
:105A4000BFF36F8FBFF34F8F62B67B61FEE7BB681A
:105A5000002B1ED00023FB6112E0BA68FB691344DF
:105A600019783A6BFB69134434330A461A70BA68E2
:105A7000FB6913441B78002B06D0FB690133FB61E3
:105A8000FB690F2BE9D900E000BF3B6B002283F8D4
:105A90004320BB6A042B0BD94FF0600372B683F32B
:105AA0001188BFF36F8FBFF34F8F62B63B61FEE784
:105AB000BB6A042B01D90423BB623B6BBA6ADA626E
:105AC0003B6BBA6A5A643B6B04331846124B9847D7
:105AD0003B6B18331846104B98473B6B3A6B1A6177
